:020000040000fa
:080000000002040000000000f2
:020000040000fa
:100008009a0200009a0200009a0200009a02000078
:100018009a0200009a0200009a0200009a02000068
:100028009a0200009a0200009a0200009a02000058
:100038009a0200009a0200009a0200009a02000048
:10004800e21200009a0200009a0200009a020000e0
:100058009a0200009a0200009a0200009a02000028
:100068009a0200009a0200009a0200009212000010
:100078009a0200009a0200009a0200009a02000008
:100088009a0200009a0200009a0200009a020000f8
:100098009a0200009a0200009a0200009a020000e8
:1000a8009a0200009a0200009a0200009a020000d8
:1000b8009a0200009a0200009a0200009a020000c8
:1000c8009a0200009a0200009a0200009a020000b8
:1000d8009a0200009a0200009a0200009a020000a8
:1000e8009a0200009a0200009a0200009a02000098
:1000f8009a0200009a0200009a0200009a02000088
:100108009a0200009a0200009a0200009a02000077
:100118009a0200009a0200009a0200009a02000067
:100128009a0200009a0200009a0200009a02000057
:100138009a0200009a0200009a0200009a02000047
:100148009a0200009a0200009a0200009a02000037
:100158009a0200009a0200009a0200009a02000027
:100168009a0200009a0200009a0200009a02000017
:100178009a0200009a0200009a0200009a02000007
:100188009a0200009a0200009a0200009a020000f7
:100198009a0200009a0200009a0200009a020000e7
:1001a8009a0200009a0200009a0200009a020000d7
:1001b8009a0200009a0200009a0200009a020000c7
:1001c8009a0200009a0200009a0200009a020000b7
:1001d8009a0200009a0200009a0200009a020000a7
:1001e8009a0200009a0200009a0200009a02000097
:0801f8009a0200009a020000c7
:020000040000fa
:100208009a0200009a0200009a0200009a02000076
:100218009a0200009a0200009a0200009a02000066
:100228009a0200009a0200009a0200009a02000056
:100238009a0200009a0200009a0200009a02000046
:10024800e21200009a0200009a0200009a020000de
:100258009a0200009a0200009a0200009a02000026
:100268009a0200009a0200009a020000921200000e
:100278009a0200009a0200009a0200009a02000006
:100288009a0200009a0200009a0200009a020000f6
:100298009a0200009a0200009a0200009a020000e6
:1002a8009a0200009a0200009a0200009a020000d6
:1002b8009a0200009a0200009a0200009a020000c6
:1002c8009a0200009a0200009a0200009a020000b6
:1002d8009a0200009a0200009a0200009a020000a6
:1002e8009a0200009a0200009a0200009a02000096
:1002f8009a0200009a0200009a0200009a02000086
:100308009a0200009a0200009a0200009a02000075
:100318009a0200009a0200009a0200009a02000065
:100328009a0200009a0200009a0200009a02000055
:100338009a0200009a0200009a0200009a02000045
:100348009a0200009a0200009a0200009a02000035
:100358009a0200009a0200009a0200009a02000025
:100368009a0200009a0200009a0200009a02000015
:100378009a0200009a0200009a0200009a02000005
:100388009a0200009a0200009a0200009a020000f5
:100398009a0200009a0200009a0200009a020000e5
:1003a8009a0200009a0200009a0200009a020000d5
:1003b8009a0200009a0200009a0200009a020000c5
:1003c8009a0200009a0200009a0200009a020000b5
:1003d8009a0200009a0200009a0200009a020000a5
:1003e8009a0200009a0200009a0200009a02000095
:0803f8009a0200009a020000c5
:020000040000fa
:100400004f8120000e7f22000e01880000000000b6
:10041000000020000000e000020032000001200087
:10042000200288000c000700a031210001002000fc
:1004300011000700000020000000e0000200320070
:10044000000002000000000058120200000000003e
:100450000040da000000fe004440a9000000200037
:100460000000e0000300320000002000a00188002e
:100470004440a80000000600910188008000780038
:100480000000eb0015003700e280400032a0b4000d
:100490009101ba00e280400032a0b4009102ba009b
:1004a000e280400032a0b4000002eb00472bde00e7
:1004b000f507b200602ce10004003a000059eb009f
:1004c0008301e900fdff3e00040037006128e100e0
:1004d000010032000082eb00040007001101ba00a5
:1004e0000200e000e8ff3a00000006003159ba00bf
:1004f0008301e9000c0032002159ba008301e900b0
:10050000080032000400e00003003a00e2804000ee
:1005100032a0b400f5ff370011d9ba008301e90019
:10052000faff3a008100e800e180400032a0b40008
:10053000000006000040da000000fe0003f0a20008
:10054000889fbe008a9fbe008c1f7800f5000700c0
:10055000fc0033006450e1004f0032006420e100f1
:100560005200320003826c0007003b000905d000f6
:100570000306d000820f54000c065d000200390013
:100580000200320089017800030678008582550058
:1005900004003d000003fd008103fd008502ea0028
:1005a0008b854200840f720002003b006000100047
:1005b000e08018006011b8000005eb007a28e10027
:1005c0000a00390006007800c75ddd00f707b200b9
:1005d000878075002d003700828171000a01780044
:1005e000610560008180d1000080d3008502e900b0
:1005f000f9ff3b00060440008784480002003b00ee
:1006000060041400e0841c000988a3000700320085
:100610008a81710082817100610164008904d100c6
:100620000884d3008b05e800170037000978a30081
:1006300013003a000b00e000130034008b05e900c2
:100640000804440089844c000a4474000978a3001b
:100650000d003a000b00e000070034008b05e900b4
:100660000804440089844c0001003a000b0020007b
:100670000978a300f7ff32000001eb000200370009
:10068000828171000a0178006b0007000cf0a7005e
:1006900001f0a000b40037006420e10002003a003d
:1006a000838f6c00b40033000801be000200be005e
:1006b000ad003700889fbe008a9fbe008c1f780067
:1006c000980007009f00330003866c006450e1002f
:1006d0002e0032006420e100330032006150e1005e
:1006e0002f0032006120e100310032008585550085
:1006f000eb07b000090020000804200005003700c7
:100700000804440089844c000a00310006034300b9
:1007100087834b000001530081815b00f8ff3300a9
:100720000203be000800a0000804440089844c00b5
:10073000f6ff3900c639dd00830173000100320085
:10074000130020008904d1000884d3000998a30075
:10075000050032000800a7000300a0008904d100b2
:100760000884d3008b05e8008904d1000884d300f5
:100770000001eb000281d2002f00070001f0a10070
:100780000cf0a70001f0a000770037006420e10022
:10079000790032000801be000200be00f7ff3700fa
:1007a0006120e100740032006000b800f3ff370000
:1007b0000000200001f82700f0ff3700140020009f
:1007c0001d0237000001be00410007000470a700b1
:1007d00003f0a10003f8a30013003a006509b1007b
:1007e00010003200090035006928e10002003500e0
:1007f0000100280000000500000040008180480042
:100800008502e900fcff3a0000000600f88f420074
:10081000050035008100d1000080d3008502e8008a
:10082000fcff3a00000006008000eb00000005001d
:100830006011b8004102370081002000618055003e
:100840000b003d000b00200061fe2f000100e100c5
:100850001d00340082817100610164008904d100af
:100860000884d3000000e800faff3a00710020007d
:1008700061006400030070000200600009003200a3
:1008800061044400e0844c000988a50005003200a2
:100890008b05e8006808e10002003a008904d100f5
:1008a0000884d300f20f20000258e10005003d004b
:1008b000c75ddd00f907b200898075000800780087
:1008c000000006000bf827008b00780000000500f0
:1008d000c70ade00f107b200f50fb20008003200cf
:1008e000e1cf4200020032000170a00024000500a8
:1008f000810f70000100320004080500440005006b
:10090000810f700002003a00140005008502e90022
:100910000000400081c04800fcff3b000170a000c7
:10092000240005000004be00e9ff07000003be002c
:100930000405be000200be00e5ff0700844f7500fd
:10094000000006000200be006450e1000500360011
:100950006420e100020036000968a30001003a00ab
:100960000800be000160a0004f0678004f05be00e1
:100970004f04be0000000600f0ff2f00f1ff27002b
:10098000f9ff3700889fbe008a9fbe008c1f780049
:10099000e4ff0700ebff330003866c006450e100c6
:1009a000240032006420e100270032006150e100a1
:1009b000220032006120e100210032008b854200dc
:1009c000eb07b1000134b800003ab8000804420057
:1009d00089844a00013ab8000030b800888040009d
:1009e00009014a00040033000000400081804800f3
:1009f000020149008b05e900c909dd00830170008f
:100a00000100320013002000c814de004814dd008d
:100a10004709de001200b200c808de00088470003a
:100a200085ff070001f0a1000cf0a70001f0a00075
:100a3000cdff37006120e100cfff32000801be008a
:100a40000200be00f7ff37006150e100fcff3a00f2
:100a5000c9ff37000c00fa00889fbe008a9fbe00c5
:100a60008c9fbe00afff07000206be008405780021
:100a70000200be00020020004801070005003a0005
:100a80008b02b300120020004401070001003a006d
:100a9000f8856d000c01be00c60007000800be000e
:100aa0009b0032000b08a3009e003a000df0a70047
:100ab0000be0a00009f0a7000bf0a00009f0a100d6
:100ac0000801be00bb0007000bf0a6009500320035
:100ad00001003c000bd0a0008acf7500b2003300ab
:100ae0006000b8006250e10099003900a1003e00aa
:100af0000b28a300a2003a000bf8a3000600320066
:100b00000b58a300a70032000801be00a90007008f
:100b10000800be00940032000800be00b0000700cc
:100b20000004be00050578000bf0a7000b30a600fe
:100b30000bf0a1005b079800324f200053f3230015
:100b40001eff070005003d000800be001200200047
:100b5000a90107000004be000a05e9004a07980041
:100b60006150b90072010700008fbe000c01be0089
:100b700084ff07004d010700300798000100e000e6
:100b800002003d0060001000e0801800f2ff270026
:100b9000820f5000e08f580064003e000c00be0041
:100ba0004201070020079800f2072000820f500042
:100bb000e08f580005003c0012f82f00f3ff2f00d3
:100bc000820f5000838f580009003d000a00e000aa
:100bd0000300320001003c000201ea000205780037
:100be0006000b800200798003a0798001900370005
:100bf0003e0090006100b9004d010700809fbe00db
:100c00000c00be004109dd004811de007208b10091
:100c1000e20007000005be001e01be0059ff0700ec
:100c20004f01be0045fe0700809fbe000c00be00c5
:100c30000a01be0041fe07001e01be0051ff070071
:100c40004f01be003efe07008221270013f3230060
:100c50004cff07000005be002e0090006100b900a7
:100c60003301070001f0a2000c01be0034fe0700b2
:100c70000006be000800be00810107000c01be0096
:100c800040ff07000a01be002dfe0700809fbe0046
:100c90004a0007002e0590000af0a7000a05ea00a6
:100ca000050037000800be000801be0035ff070040
:100cb0000004be000c00be000801be000a00a70030
:100cc00030ff07000006be000a05d100f5ff3a001c
:100cd0005e01900002e0a600030037000001be00a4
:100ce0003600070073fe07000004be004f00be0080
:100cf000480007000801be0022ff07003e019000e7
:100d00003d010700de0590000bf0a70001f0a200f6
:100d10004f06be004f05be004f04be000080fa0023
:100d20000000060025000700f9ff37002700070034
:100d30006000b8000bd0a7000bc0a0000be0a7001c
:100d40000bc0a2000bc0a70001f82700f0ff37007e
:100d50000df8a300020032001e0007001900070072
:100d60000bf8a300eaff32000b30a70001f0a2004d
:100d7000e7ff37000df8a300f9ff3a00f7ff37004f
:100d80000801be000b000700e6ff320001003c0036
:100d90000df0a2006000b8000df0a70009000700e8
:100da000dbff37000b000700f1ff2700f0ff2f00eb
:100db000d7ff37000100070080fe370001f823004d
:100dc0000000050001f827000000050020022000b7
:100dd000010037001002200090408800000006004b
:100de0000003be00bafe07006220e10002003200ec
:100df0000600be0005000500e507b100f107b200de
:100e000004f023008480700007f0a70001f0a00028
:100e100024000500889fbe008a9fbe008c9fbe00f4
:100e20000004be00aafe07000800be006420e10026
:100e300048003e005500320072212700132b240089
:100e40009800070047003c000800be00c2ec2800e4
:100e5000e32c2c0059fe0700470035000800be00b7
:100e600001f0a100020020000338230053fe070018
:100e7000430035000800be00b2a32a0083fb230014
:100e8000c0fe07000200200003f0230001f0a700cd
:100e900003f0a000aafd0700840007000005be00c3
:100ea000a300070001f0a2000006be000200280017
:100eb00013f32300b3fe07000801be00a0fd0700e6
:100ec000809fbe000c00be0032082800e3952b0076
:100ed000acfe07004f01be0099fd07000006be00f2
:100ee0000001be00a7fe0700809fbe004241250012
:100ef00083b82300a3fe07000200200003e82300bc
:100f00008ffd07000c01be009efe07000006be001c
:100f10004f00be00f2f92b00c3d4230099fe070056
:100f20000200200003f0230085fd07000c01be0035
:100f300082fd07000001be000c00be00ddfd0700c1
:100f40000200200003f023007dfd07006101450041
:100f5000a90007004f06be004f05be004f04be00ab
:100f60000000060001f827000000200022022000f7
:100f700092408800f7ff37006000b800fbff3700a1
:100f800001f8230000002000f2ff370009f8a30059
:100f9000f0ff32006000b800eeff3700889fbe000f
:100fa0008a9fbe000003be0049fe07008505780049
:100fb00082815200020020006220e10004003a0019
:100fc000f307b100040035007718e1000400350094
:100fd0000600be00140037006000b8000f003700a4
:100fe000f50f2000faff2f008502d1000a85d300fb
:100ff0008301e900fcff3b0081846200000465007e
:10100000890f7400f2ff32008582ea000a85ea0047
:10101000818462000004650007fe070007f0a70056
:1010200001f0a0000081eb000200e0004f05be00cf
:101030004f04be0000000600889fbe008a9fbe00cd
:10104000841f780037fe07004f007800110033003e
:10105000f0ff2f00838f6c0006003b000405650045
:101060000a00a7000800370009f0a60010002000c1
:1010700008003700820f5400838f5c0003003900a2
:101080001000200001003e000000200009f0a70031
:101090000000ea004f05be004f04be000000e00063
:1010a00000000600f4ff2f00e3ff37000001be0040
:1010b00007fe07000470a70003f0a1006509b10056
:1010c000160032000d0035006828e10006003500ea
:1010d000f0ff2f00f1ff27000300e00013003b00aa
:1010e0000100280000000500000040008180480049
:1010f0008502e900fcff3a0008003700f88f420043
:1011000002003c008000eb00000005008100d100df
:101110000080d3008502e800fcff3a000300e000f5
:1011200002003b0060001000e08018000000060094
:101130004f89de0082017800a8003700889fbe003a
:101140008a9fbe0000827000040271000482710058
:10115000260032000004be000200be006011b8008c
:101160006b092000950220000182cf000a0039009f
:101170000541b1000082cf00070039000541b100f0
:101180000982cf00040039000541b1000882cf0078
:10119000010039000541b100054252001200320041
:1011a0000a003b0082817100610164008100d1006e
:1011b0000080d3008984d3000884d3008b05e80025
:1011c0000442e800f7ff3a00070037000804440033
:1011d00089844c0000004800818048008b05e900ac
:1011e0000442e900f9ff3a0093fd07004f05be00f5
:1011f0004f04be00000006000003be00b4fd07005f
:101200006220e100020032000600be00000006007d
:1012100085024100e30f20000328e10005003c00a7
:10122000a3fe2f000328e10007003d000500200079
:1012300001003700f50f20002002200090408800b8
:101240006000b800080037001300200083815200be
:1012500005003d008100d1000080d3008301e8003b
:10126000fcff3a0005002000c72add00f107b200ac
:101270008580700007f0a70001f0a00000000600c4
:10128000889fbe008a9fbe008c9fbe00d4fe0700d0
:10129000850478000005be006420e10049003e009e
:1012a0006220e10003003200090035000bf8a300c2
:1012b000440032000bf8a3000800320010022000a6
:1012c00090408800f0ff2f00f1ff27003d0037001d
:1012d00001f82f00000020003a0037003d00070011
:1012e00096fc07000006be000a00be00324f200038
:1012f00053f323006bff0700060034000c00be0010
:10130000340007008dfc07000006be000a00be0086
:10131000020037008904e9000c00be002d00070020
:1013200098fd07002b00070085fc07000001be00a8
:101330000c00be00dffc07000005be000001be007f
:1013400090fd07000006be00a2f32300430d2c0011
:101350007bfc0700809fbe000c00be00d2e327008c
:10136000d3f02b0087fd07004f01be00d1fc070022
:101370000006be000a01be0082fd07000a01be0091
:101380006ffc07000006be006148b90068ff070057
:101390000005be0032082800e3952b0079fd070008
:1013a0000c01be0066fc07000006be000a00be007d
:1013b0000200280013f3230072fd07000c01be0099
:1013c0005ffc07004f06be004f05be004f04be0085
:1013d0000000060003f0230002000500881f7800cb
:1013e000030478000300e00007003d0060001000e7
:1013f000e080180060011900e081190002003b0044
:1014000001f02d00030037004cff070008f0a70093
:0c14100001f0a0004f047800000006006e
:020000040000fa
:10141c000000fa002c03a9002c23a9002c43a900de
:10142c002c43a900c002a800c9c2a800c842a80049
:10143c00c862a8003003a8003023a8003043a800dd
:10144c003063a800041980000480a1000490a1005e
:10145c0004198800041980000450a0000460a00046
:10146c000470a000041988002043a90014198000fe
:10147c0004d0a10004e0a10004f0a100141988001c
:10148c002343a800141980000420a0000430a000fd
:10149c000440a0000450a000141988002203a900e5
:1014ac0025e3a90025198000f40f2e008482620028
:1014bc00041020000502720024198800a4c0b30097
:1014cc000400780024e3b7000002eb004419880004
:1014dc0021e3a80085a0a9000080fa000000060006
:1014ec005200fa00881f78000002eb00040f78000d
:1014fc0085a0a9002043a80000000000250480005e
:10150c000400220004826200e00f5200fbff320054
:10151c002043a90004188000050020000400be0030
:10152c00c0fc07000002be0002002c00f3472400a0
:10153c000400be005cfc07000002be00020020009c
:10154c00030a24000400be000bfd07000002be00cd
:10155c001407980025079800441880000500200007
:10156c000400be00affc07000002be0002002c000d
:10157c00f34724000400be004bfc07000002be0031
:10158c0002002000030a24000400be00fafc07003d
:10159c000002be00340798004507980084188000ac
:1015ac00050020000400be009efc07000002be00e7
:1015bc0002002c00f34724000400be003afc070094
:1015cc000002be0002002000030a24000400be003a
:1015dc00e9fc07000002be0054079800650798005c
:1015ec00c4188000050020000400be008dfc07001c
:1015fc000002be0002002c00f34724000400be00d1
:10160c0029fc07000002be0002002000030a24008f
:10161c000400be00d8fc07000002be00740798004e
:10162c00050f98006022b800140f9800250f980041
:10163c0014188000050020000400be0079fc07008f
:10164c000002be0002002c00f34724000400be0080
:10165c0015fc07000002be0002002000030a240053
:10166c000400be00c4fc07000002be00340f98004a
:10167c00450f980054188000050020000400be009f
:10168c0068fc07000002be0002002c00f347240097
:10169c000400be0004fc07000002be000200200093
:1016ac00030a24000400be00b3fc07000002be00c5
:1016bc00540f9800650f98009418800005002000c6
:1016cc000400be0057fc07000002be0002002c0004
:1016dc00f34724000400be00f3fb07000002be0029
:1016ec0002002000030a24000400be00a2fc070034
:1016fc000002be00740f980005179800d4188000e3
:10170c00050020000400be0046fc07000002be00dd
:10171c0002002c00f34724000400be00e2fb07008b
:10172c000002be0002002000030a24000400be00d8
:10173c0091fc07000002be001417980025179800b2
:10174c006022b800341798004517980024188000c0
:10175c00050020000400be0032fc07000002be00a1
:10176c0002002c00f34724000400be00cefb07004f
:10177c000002be0002002000030a24000400be0088
:10178c007dfc07000002be005417980065179800f6
:10179c0064188000050020000400be0021fc070036
:1017ac000002be0002002c00f34724000400be001f
:1017bc00bdfb07000002be0002002000030a24004b
:1017cc000400be006cfc07000002be0074179800f9
:1017dc00051f9800a4188000050020000400be001e
:1017ec0010fc07000002be0002002c00f34724008e
:1017fc000400be00acfb07000002be00020020008b
:10180c00030a24000400be005bfc07000002be00bb
:10181c00141f9800251f9800e41880000500200074
:10182c000400be00fffb07000002be0002002c00fb
:10183c00f34724000400be009bfb07000002be001f
:10184c0002002000030a24000400be004afc07002a
:10185c000002be00341f9800451f98006022b8009b
:10186c00541f9800651f9800341880000500200054
:10187c000400be00ebfb07000002be0002002c00bf
:10188c00f34724000400be0087fb07000002be00e3
:10189c0002002000030a24000400be0036fc0700ee
:1018ac000002be00741f9800052798007418800071
:1018bc00050020000400be00dafb07000002be0099
:1018cc0002002c00f34724000400be0076fb070046
:1018dc000002be0002002000030a24000400be0027
:1018ec0025fc07000002be0014279800252798004d
:1018fc00b4188000050020000400be00c9fb0700de
:10190c000002be0002002c00f34724000400be00bd
:10191c0065fb07000002be0002002000030a240041
:10192c000400be0014fc07000002be00342798001f
:10193c0045279800f4188000050020000400be0024
:10194c00b8fb07000002be0002002c00f347240085
:10195c000400be0054fb07000002be000200200081
:10196c00030a24000400be0003fc07000002be00b2
:10197c0054279800652798006022b80074279800b7
:10198c00052f98000002eb00040f78003700370099
:10199c001e0278004222dd008e82e80004824200a2
:1019ac001403be001e0a9000ae0a90000401be0093
:1019bc000600be00dffa07000002be00140f9800fc
:1019cc00250f98001e0278004222dd00a50220009f
:1019dc008e824200048242001403be005e1a900004
:1019ec00ee1a90000401be000600be00d1fa0700fa
:1019fc000002be00541f9800651f98001e0278005c
:101a0c004222dd00f6024700048242001403be00ad
:101a1c003e129000ce1290000401be000600be00e3
:101a2c00c4fa07000002be0034179800451798004e
:101a3c001e0278004222dd00e50320008e82420067
:101a4c00048242001403be007e2290008e2a900075
:101a5c000401be000600be00b6fa07000002be007c
:101a6c0074279800052f98001e0fe8001e027800be
:101a7c00e30f5200c6ff34001e0a9000ae0a90001d
:101a8c0002002000030824000400be0006fb07002f
:101a9c000002be00140f9800250f98005e1a9000eb
:101aac00ee1a900002002000030824000400be007f
:101abc00fdfa07000002be00541f9800651f980035
:101acc003e129000ce129000020020000308240069
:101adc000400be00f4fa07000002be0034179800a0
:101aec00451798007e2290008e2a9000020020005c
:101afc00030824000400be00ebfa07000002be003d
:101b0c0074279800052f98001e0a9000ae0a9000ca
:101b1c0018c0b30002002000030624000400be001d
:101b2c0023fb070000027800e00f52000100340094
:101b3c000044eb00e04f54000400320064802000ad
:101b4c001500200025029800030037006480200057
:101b5c008002eb00250298005e1a9000ee1a9000ad
:101b6c0018c0b30002002000030024000400be00d3
:101b7c000ffb070000027800e00f52000100340058
:101b8c000044eb00e04f540004003200648020005d
:101b9c0015002000050a780003003700648020003f
:101bac008002eb00050a78003e129000ce129000e5
:101bbc0018c0b30002002000030024000400be0083
:101bcc00fbfa070000027800e00f5200010034001d
:101bdc000044eb00e04f540004003200648020000d
:101bec0015002000150298000300370064802000c7
:101bfc008002eb0015029800648020002402900003
:101c0c0004024200840278006480200014029000d8
:101c1c0005027200040242008402780064802000f5
:101c2c001402780004037800050373008602780020
:101c3c0064802000350298007e2290008e2a90004d
:101c4c003233230033f92b000400be007efb070067
:101c5c000002be0082142e00e31d24000400be000e
:101c6c0045fb07000002be0018c0b30002002000b4
:101c7c00031a24000400be00cdfa0700000278000d
:101c8c00e00f5200010034000044eb00e04f540020
:101c9c0004003200440020000440880013e1a80036
:101cac0005003700240020000440880013e1a9003f
:101cbc000002eb00144088004f0478000080fa000a
:101ccc00000006000000fa00c9a2a800c982a80002
:101cdc00c962a800c942a800cda2a800cd82a80064
:101cec00cd62a800cd42a8000002eb0034088800a9
:101cfc00840880000440a1000450a10084088800de
:101d0c0084992300640888000002eb00140c8800fe
:101d1c000002eb00440c88000002eb00740c8800fd
:101d2c000002eb00a40c88000002eb00040c8800fd
:101d3c000002eb00340c88000002eb00640c8800fd
:101d4c000002eb00940c88008461a9008a61a90050
:101d5c009061a9009661a900240c80000400a100e8
:101d6c000410a0000420a000240c8800540c800057
:101d7c000400a1000410a0000420a000540c880052
:101d8c00840c80000400a1000410a0000420a0001a
:101d9c00840c8800b40c80000400a1000410a00086
:101dac000420a000b40c880065368000f40f2e00cf
:101dbc0084826200042021000502720064368800cf
:101dcc006536800004fe2f00048262003401b300eb
:101ddc006436880055368000f40f2e008482620031
:101dec0004402100050272005436880055368000ec
:101dfc0004fe2f00048262005401b30054368800a4
:101e0c0011e1a8006000b800080007006000b800ed
:101e1c00140007006000b800200007006000b80044
:101e2c002c0007000080fa00000006000400fa00f5
:101e3c00008fbe0072262600636624001e00be00c2
:101e4c00cdfa07000002be000400be005afa0700db
:101e5c000002be0004027800040c88000080fa0026
:101e6c00000006000400fa00008fbe007226260057
:101e7c00636624001e00be00bffa07000002be000d
:101e8c000400be004cfa07000002be0004027800f9
:101e9c00340c88000080fa00000006000400fa00f0
:101eac00008fbe0072262600636624001e00be0052
:101ebc00b1fa07000002be000400be003efa0700a3
:101ecc000002be0004027800640c88000080fa0056
:101edc00000006000400fa00008fbe0072262600e7
:101eec00636624001e00be00a3fa07000002be00b9
:101efc000400be0030fa07000002be0004027800a5
:101f0c00940c88000080fa00000006000000fa0023
:101f1c000000200001f8230057000700f0512800b2
:101f2c00b1f623005d0007000080fa0000000600f7
:101f3c000000fa000000200001f8230069000700ef
:101f4c00f0512800b1f623005d0007000080fa0074
:101f5c00000006000000fa00030007000b00070059
:101f6c000080fa00000006000000fa0000002000cb
:101f7c0001f82b00c9ff07000000200001f82b001e
:101f8c00aaff07000080fa00000006000000fa001b
:101f9c000000200001f82b00ceff070000002000fd
:101fac0001f82b00afff07000080fa0000000600cc
:101fbc000000fa00f5ff0700d0cc2c00c1f0230084
:101fcc00360007000080fa00000006000000fa004e
:101fdc00e5ff0700d0cc2c00c1f023002600070041
:101fec000080fa00000006000000fa0030332300e5
:101ffc0031f32300200007003033230031f323009a
:10200c002f0007000080fa00000006000000fa0014
:10201c003033230031f32300320007003033230028
:10202c0031f323001d0007000080fa0000000600b9
:10203c000400fa00008fbe001e00be00170007004f
:10204c000000200001f823000b0007000080fa00bc
:10205c00000006000400fa00008fbe000000200003
:10206c0001f823000d0007001e00be00020007004f
:10207c000080fa00000006000400fa00008fbe0089
:10208c001e00be0085ff07000000200001f82b0099
:10209c0090ff07000080fa00000006000400fa0020
:1020ac00008fbe001e00be0060ff07000000200075
:1020bc0001f82b006bff07000080fa0000000600ff
:1020cc000400fa00008fbe000000200001f82b0075
:1020dc0056ff07001e00be0062ff07000080fa00da
:1020ec00000006000400fa00008fbe000000200073
:1020fc0001f82b0069ff07001e00be0075ff0700ea
:10210c000080fa00000006000000fa00c0fc070086
:10211c00ecfe07003d010700c2000700c9e2a90060
:10212c00c9c2a900cde2a800c9c2a80064802000e1
:10213c008002eb00050a7800648020008002eb002e
:10214c0025029800648020008002eb0015029800a4
:10215c00648020008002eb00350298000002eb0046
:10216c001440880014002000044088000080fa000d
:10217c00000006000000fa00d9fc0700c9c2a80044
:10218c0064802000b402900024408000848f5200b0
:10219c00060032006fff07002003200075000700c7
:1021ac006480200034029000244088006480200069
:1021bc0034029000e00f52000c003a008440800082
:1021cc00e10f520002003a0090ff070018003700a0
:1021dc0084408000e40f520002003a0082ff0700a6
:1021ec001300370052ff07001100370064802000f5
:1021fc0034029000e10f520004003a0043ff070044
:10220c0014002000844088000900370064802000fe
:10221c0034029000e40f520004003a003bff070028
:10222c0044002000844088000100370037ff07007d
:10223c000080fa00000006000000fa00c9c2a800e5
:10224c00cde2a80043ff07000080fa000000060062
:10225c000000fa000002eb001440880064802000ab
:10226c008002eb003502980084408000e10f5200a0
:10227c0002003a0065ff070004003700844080002c
:10228c00e40f520001003a0057ff0700c012200073
:10229c00380007000100370091fc07006480200023
:1022ac0034029000e00f5200fbff320029ff0700c0
:1022bc0024002000044088000080fa000000060082
:1022cc000000fa0023ff070085fc0700c9c2a90023
:1022dc000080fa00000006000200fa00000f7800ef
:1022ec00240880000440a1000450a10024088800a8
:1022fc000002eb00040888001e0278000500200094
:10230c000400be0047f907000002be00a2df2e0049
:10231c00b31624000400be0097f907000002be00ab
:10232c000200200003f823000400be0080f8070020
:10233c000002be000400be001ff907000002be0030
:10234c0004027800140888008460a90005e1a80044
:10235c00000000002404800068026200e00f5200bc
:10236c00fcff32008460a90005e1a9000080fa009e
:10237c00000006000200fa00000f7800240880001c
:10238c000440a0000450a000240888000002eb00c8
:10239c00040888001e027800050020000400be001e
:1023ac0020f907000002be00726626006366240056
:1023bc000400be0070f907000002be0002002000fd
:1023cc00033824000400be00b7f807000002be006a
:1023dc000200200003f823000400be0054f807009c
:1023ec000002be000400be00f3f807000002be00ad
:1023fc0004027800140888008460a90005e1a80094
:10240c00000000002404800068026200e00f52000b
:10241c00fcff32008460a90005e1a9000080fa00ed
:10242c00000006000200fa00940880000440a0009e
:10243c000450a000940888000002eb0054088800a7
:10244c00f40f2e00040f78001e0278007408880028
:10245c009500a8008500a90013e1a9000080fa00ee
:10246c00000006000400fa00100798000002eb00c0
:10247c00040f78000002eb00040f78000300370013
:10248c00803e2000bbff07001e0fe8001e029000dc
:10249c009e027800848f5200f9ff35000080fa000c
:1024ac00000006000400fa00000f780011079800e5
:1024bc0001003700000000000440800005002000ef
:1024cc004600200007002000860f5200878f5a001c
:1024dc00f8ff3e00046001000400370007003700dd
:1024ec0004003700070037000800370006ff07001c
:1024fc00080037001fff0700060037004eff0700db
:10250c000400370052ff0700020037006cff070081
:10251c0000000000e8ff3700801f7800849fbe0099
:10252c003400f80000002000a00188000000fa0030
:10253c000000000055168000040220000482620096
:10254c00e00f5200fbff3200551680000402200001
:10255c0004826200e00f520006003200044080004a
:10256c00e10f5200030032001400200004408800e8
:10257c000b00370055168000040220000482620014
:10258c00e00f52000600320004408000e10f5200c0
:10259c0003003a002400200004408800cde2a9008a
:1025ac008660a9000080fa003400f9004f02be00da
:1025bc004f00780000400600801f7800841f7800d0
:1025cc003400f80000002000a00188000000fa0090
:1025dc00144080000402e800144088008500a90023
:1025ec0014408000e70f5200030036003400200036
:1025fc000440880013e1a9000080fa003400f900bf
:10260c004f0278004f007800004006000000fa00ee
:10261c00c8a2a8008660a9009660a8006360a80004
:08262c000080fa000000060026
:020000040000fa
:102634000008000012000000000000001208000062
:0c26440002000000000000000000000088
:020000040000fa
:020000040001f9
:0457f800ad7b000085
:020000040000fa
:020000040001f9
:0457fc003f3f00002b
:00000001FF
